:020000040800F2
:10000000782300209D0100085D3100087926000852
:1000100059310008D10A0008793B000800000000AF
:10002000000000000000000000000000BD320008D9
:10003000DF0B0008000000005F310008BF3200083D
:10004000B7010008B7010008B7010008B7010008B0
:10005000B7010008B7010008B7010008B7010008A0
:10006000B7010008B7010008E10B0008B70100085C
:10007000B7010008B7010008B7010008B701000880
:10008000B7010008B7010008B7010008B701000870
:10009000B7010008B7010008B7010008EB0B000822
:1000A000B7010008B7010008B7010008B701000850
:1000B000B7010008B7010008B7010008B701000840
:1000C000B7010008B7010008B7010008B701000830
:1000D000B7010008B7010008B7010008B701000820
:1000E000B7010008B7010008B7010008B701000810
:1000F000B7010008B7010008B7010008B701000800
:10010000B7010008B7010008B7010008B7010008EF
:10011000B7010008B7010008B7010008B7010008DF
:10012000B7010008D50A0008B7010008B7010008A8
:10013000B7010008B7010008B7010008B7010008BF
:10014000B7010008B7010008B7010008B7010008AF
:10015000B7010008E50A0008B70100081D3B0008C8
:10016000B7010008B7010008B7010008B70100088F
:10017000B7010008B7010008B7010008000000003F
:10018000B7010008B7010008DFF80CD000F0C6FA8C
:1001900000480047E54700087823002006488047CC
:1001A00006480047FEE7FEE7FEE7FEE7FEE7FEE75C
:1001B000FEE7FEE7FEE7FEE77D3300088901000861
:1001C0002DE9F05F0546002092469B46884606468C
:1001D000814640241BE0284641464746224600F01F
:1001E000E2F853465A46C01A914110D311461846B8
:1001F000224600F0C9F82D1A67EB01084F46224647
:100200000120002100F0C0F817EB00094E41201E2C
:10021000A4F10104DFDC484631462A464346BDE8E6
:10022000F09FD2B201E000F8012B491EFBD27047CB
:100230000022F6E710B513460A4604461946FFF7B2
:10024000F0FF204610BD2DE9FE4F81EA030404F0C3
:10025000004421F0004100944FF0000B23F00043D4
:1002600050EA01045ED052EA03045BD0C3F30A549F
:10027000C1F30A552C44A4F2F3340194A0FB0254B8
:10028000C1F3130141F48011C3F3130343F480134A
:1002900001FB024400FB034E840A970A44EA81549E
:1002A00047EA8357A4FB076802958D0A05FB07857B
:1002B0004FEA932C04FB0C542705029D4FEA065885
:1002C00047EA1637B5EB08056EEB070C870E920E62
:1002D00047EA811742EA8312A7FB0201B6EB0B0142
:1002E00064EB00042B0D43EA0C335E1844EB1C5006
:1002F000DA465146E7FB0201C5F313044FEA0B331C
:1003000043EA14534FEA0432019C43EA0603A4F182
:100310000C040294009CCDE900B400F09AF803B0FC
:10032000BDE8F08F00200146F9E700F0004230F010
:1003300000400AD0C10D01F56071C0F3160042EA19
:100340000151C20840071143704700200146704721
:1003500001F0004330B421F0004150EA010206D020
:100360000A0DA2F56072C1F31301002A02DC30BC51
:1003700000207047440F44EAC104C100E01830BCBB
:1003800000EBC25000F01FB8202A04DB203A00FA2C
:1003900002F1002070479140C2F1200320FA03F3DC
:1003A000194390407047202A04DB203A21FA02F0DA
:1003B0000021704721FA02F3D040C2F1200291409F
:1003C0000843194670470029A8BF7047401C4900E0
:1003D00008BF20F00100704710B4B0FA80FC00FAAA
:1003E0000CF050EA010404BF10BC704749B1CCF1D5
:1003F000200421FA04F411FA0CF118BF0121214361
:100400000843A3EB0C01CB1D4FEA00614FEA10201B
:1004100042BF002010BC704700EBC35010440029BD
:10042000A4BF10BC7047401C490008BF20F0010069
:1004300010BC704710B5141E73F1000408DA401C9C
:1004400041F1000192185B411A4301D120F00100F3
:1004500010BD2DE9F04D92469B4611B1B1FA81F2E3
:1004600002E0B0FA80F220329046FFF78DFF04469A
:100470000F4640EA0A0041EA0B0153465A46084338
:1004800013D0114653EA010019D0C8F1400250467A
:10049000FFF789FF05460E46504659464246FFF78C
:1004A00073FF084305D0012004E020463946BDE82B
:1004B000F08D0020054346EAE0762C4337430A9846
:1004C0006305E40AA0EB08000022FD0A44EA475451
:1004D0000A3002D500200146E9E7010510196941FB
:1004E000DDE9084500196941BDE8F04DA2E72DE9B5
:1004F000FE4F804681EA0300C00F0C46009021F0B9
:10050000004123F00045B8EB0200A94105D2404666
:10051000214690461C460B46024623F000401043FD
:1005200047D0270DC7F30A00C3F30A510290401ABF
:10053000019040286BDAC3F3130040F4801B00984D
:10054000924620B10023D2EB030A63EB0B0B019818
:100550005946C0F140025046FFF716FF06460D46C9
:1005600050465946019A00F0EBF810EB0800614143
:10057000002487EA115284EAE7731A4340D0009AB4
:1005800062B3019A012A4FEA075215DC001B61EBA6
:1005900002014FF0004202EA0752CDE90042001C7E
:1005A00041F5801132462B46FFF753FF03B0BDE8FB
:1005B000F08F40462146F9E7001B61EB0201001C69
:1005C00041F5801300185B412018A2F5001747EB96
:1005D000030140EAD570B6196D4111E06D084FEA8C
:1005E000360645EAC0754FEA0752001B61EB02016F
:1005F000001C41F5801149084FEA300000195141B3
:1006000032462B4603B0BDE8F04FFFF713BF00980A
:10061000012240000023D0EB020263EBE07300985C
:1006200021464FEAE074B8EB000061EB0401E9E712
:1006300083F000435BE781F0004158E72DE9F04D7E
:1006400081EA030404F0004B21F0004514464FF00A
:10065000000A23F0004150EA050220D054EA0102CA
:100660001DD0C5F30A570246C5F31303C1F31300A7
:10067000C1F30A5640F4801543F48013A7EB060833
:10068000101BD64608F2FD3873EB050002D308F1C3
:10069000010801E092185B41B8F1000F03DA002075
:1006A0000146BDE8F08D00204FF4801106468446D7
:1006B0000EE0171B73EB050705D3121B63EB050355
:1006C00006434CEA010C49084FEA300092185B419E
:1006D00050EA0107EDD152EA030012D082EA040089
:1006E00083EA0501084305D0101BAB4106D2012265
:1006F000002306E000224FF0004302E06FF0010209
:1007000053101AEB06004CEB085110EB0A0041EBBA
:100710000B01BDE8F04DFFF78DBE0000064C074D04
:1007200006E0E06840F0010394E8070098471034C1
:10073000AC42F6D3FFF72CFDD04A0008F04A00087F
:10074000202A06DBCB17203A41FA02F043EAE07395
:1007500006E041FA02F3D040C2F120029140084382
:10076000194670472DE9F04D00231A461B1A8A419D
:1007700003DB00200146BDE8F08DC1F30A52C1F34E
:10078000130141F480154FF0000BD10702D100187E
:100790006D41521E0027044640F2FF11384601EB1E
:1007A000620A3E468046024600204FF48011FFF761
:1007B000FAFDC2197141BB1846EB0100B4EB030C02
:1007C00075EB000C04D3E41A65EB000517460E46E2
:1007D000241908F101006D4180463428E3DDF91940
:1007E00046EB0600091BA84103D24FF0FF32134627
:1007F00001E0002213461BEB070046EB0A51BDE85F
:10080000F04DFFF717BE000010B50122102102487D
:1008100000F038FD10BD00000000024010B50022BD
:100820001021024800F02EFD10BD00000000024023
:100830007047000010B501221146024800F022FD69
:1008400010BD00000004024010B500220121024842
:1008500000F018FD10BD000000040240704710B504
:10086000044603E04FF47A7000F006F8201EA4F16D
:1008700001018CB2F6D110BD70B5034600BF00BFB8
:100880000020002200BF4FF0E0267569A82603FB78
:1008900006F44FF0E026B16910E04FF0E026B069B1
:1008A00088420BD0884202D20E1A324402E02E1A3D
:1008B0000E4432440146A24200D300E0EDE700BFFF
:1008C00070BD10B50024FFF7B3FFFFF7C7FF03F0BB
:1008D00051FE044303F0E2FE0443204610BD000035
:1008E0002DE9FC4105460E46174600200090019078
:1008F000FFF794FF922000F0D1F8062269461220FB
:1009000000F0ACF8FFF780FF9DF80100000200B294
:100910009DF8001040EA010400EE104AB8EEC00A4B
:100920004C48D0ED000A20EE200A86ED000A9DF822
:100930000300000200B29DF8021040EA010400EE3C
:10094000104AB8EEC00A4348D0ED000A20EE200A53
:1009500086ED010A9DF80500000200B29DF8041022
:1009600040EA010400EE104AB8EEC00A3948D0ED62
:10097000000A20EE200A86ED020AFFF765FF082232
:100980006946002000F06AF8FFF754FF9DF8000068
:100990000F2838D19DF80300000200B29DF8021024
:1009A00040EA010400EE104AB8EEC00A2A48D0ED31
:1009B000000A20EE200A85ED000A9DF805000002DD
:1009C00000B29DF8041040EA010400EE104AB8EEAF
:1009D000C00A2148D0ED000A20EE200A85ED010A68
:1009E0009DF80700000200B29DF8061040EA0104DD
:1009F00000EE104AB8EEC00A1748D0ED000A20EE0B
:100A0000200A85ED020AFFF709FFA22000F046F850
:100A100002226946222000F021F8FFF7F5FE9DF83A
:100A20000000C0009DF8011040EA6114B4F5806F29
:100A300002DBA4F5006004B200EE104AF8EEC00A32
:100A4000B4EE001AB3EE070A00EE810A87ED000A41
:100A5000BDE8FC81480000204C00002070B506462F
:100A60000C46154646F0800000F018F806E05520C8
:100A700000F014F82070641C681EC5B2002DF6D179
:100A800070BD70B504460D4644F0800000F006F8D5
:100A9000552000F003F8287070BD000001B582B049
:100AA0004FF47A70012301AA02A90090024801F0D4
:100AB0001BF99DF804000EBDA800002070B5054686
:100AC0000C462846FFF7EAFF2046FFF7E7FF70BD18
:100AD00000BFFEE710B5024800F0F0F810BD0000BE
:100AE000B402002010B5024800F0E8F810BD000084
:100AF0001403002001680A4BCAB2103AA3FB023269
:100B00001209084B9B5CC365032A04D96FF30901E2
:100B1000091D816502E06FF309018165806D7047F1
:100B2000ABAAAAAAD2490008014600208A6A8B69AA
:100B3000002B0FD0B3F5005F1DD08AB3012A30D04F
:100B4000022A2ED0032A04D1C96A11F0807F00D076
:100B5000012070471AB1012A07D0022AF9D1C96AC7
:100B600011F0807FF5D001207047C96AB1F1C07FD4
:100B7000FAD1012070475AB1012A0BD0022A07D0BE
:100B8000032AF7D1C96AB1F1C07FF3D101207047C0
:100B900001207047C96A11F0807FFAD001207047A8
:100BA000FFE70120704710B4D0F800C0DCF8004027
:100BB00024F48024CCF80040D0F800C0CCF80430F5
:100BC0008368402B05D0036899600068C26010BC40
:100BD000704703689A600068C16010BC7047704736
:100BE00010B5102000F024FA10BD10B5202000F040
:100BF0001FFA10BD70472DE9F0410446A66D00F0C4
:100C000049FB054694F835000027022806D08020CD
:100C1000606584F834700120BDE8F08120680168C7
:100C200021F0160101602068416921F080014161D5
:100C3000206C08B9A06C20B12068016821F008017F
:100C400001602068016821F00101016020680068EE
:100C500010F0010F12D000F01DFB401B052808D931
:100C600020206065032084F8350084F83470BDE8E6
:100C7000F0812068006810F0010FECD194F85C005E
:100C80003F2101FA00F0B060012084F8350084F8BB
:100C900034700020BDE8F08190F83510022903D0AF
:100CA0008021416501207047052180F835100068DA
:100CB000016821F001010160002070472DE9F8432F
:100CC00004464FF00008CDF8008076484FF41651E6
:100CD0000068B0FBF1F7A56D2E6894F85C00082160
:100CE00001FA00F0304211D02068026812F0040FBF
:100CF0000CD0026822F00402026094F85C0001FA51
:100D000000F0A860606D40F00100606594F85C0040
:100D10004FF0010909FA00F0304209D02168496911
:100D200011F0800F04D0A860606D40F00200606593
:100D300094F85C1004208840304209D0216809688A
:100D400011F0020F04D0A860606D40F004006065EF
:100D500094F85C1010208840304224D02168096843
:100D600011F0080F1FD0A8602068016811F4802FCF
:100D70000DD0006810F4002F04D0A16C99B120466A
:100D8000884710E0216C71B1204688470BE001686C
:100D900011F4807F03D1016821F008010160216C0A
:100DA00009B12046884794F85C10202088403042E2
:100DB00051D02168096811F0100F4CD0A86094F848
:100DC000350005280DD02068016811F4802F32D03D
:100DD000006810F4002F29D0E16B59B320468847F2
:100DE00039E02068016821F016010160206841693E
:100DF00021F080014161206C08B9A06C20B120680D
:100E0000016821F00801016094F85C003F2101FABB
:100E100000F0A86084F8359084F83480216D0029B2
:100E20003ED001B02046BDE8F0430847616C09B1EF
:100E3000204688470FE0016811F4807F07D10168E0
:100E400021F01001016084F8359084F83480E16B62
:100E500009B120468847606D002821D0606D10F0F0
:100E6000010F15D0052084F835002068016821F0B5
:100E7000010101600098401C0090B84204D820682D
:100E8000006810F0010FF5D184F8359084F83480B3
:100E9000E16C002904D001B02046BDE8F0430847CA
:100EA000BDE8F883200000202DE9F041044600F061
:100EB000F1F90546DCB1022084F83500002684F8FB
:100EC00034602068016821F0010101602068006839
:100ED00010F0010F13D000F0DDF9401B052809D9EF
:100EE00020206065032084F83500BDE8F0810120F2
:100EF000BDE8F0812068006810F0010FEBD1216897
:100F00000868234A1040A3686268D4F810C01A43E6
:100F1000E36843EA0C031A4363691A43A3691A435B
:100F2000E3691A43236A1A431043626A042A03D10D
:100F3000236BE26A1A43104308602068406920F07E
:100F40000701606A40EA0105012704280ED1A06A62
:100F50000543E06A50B12046FFF7E6FD30B140207E
:100F6000606584F835700120BDE8F0812068456136
:100F70002046FFF7BFFD94F85C103F2202FA01F112
:100F80008160666584F835700020BDE8F08100005E
:100F90003F8010F070B504460025A66D94F834002B
:100FA00001280DD0012084F8340094F835C00020C9
:100FB000BCF1010F06D084F834000225284670BD2C
:100FC000022070BD4FF0020C84F835C060652046E9
:100FD000FFF7E9FD94F85C003F2101FA00F0B060F2
:100FE0002068016841F016010160206C20B1206882
:100FF000016841F0080101602068016841F00101C9
:101000000160DBE770B5044600F044F90546B4F131
:10101000FF3F02D004480078044400F03BF9401B35
:10102000A042FAD370BD0000740000207047000099
:1010300010B504490A68024202D00860FFF7F6FFC3
:1010400010BD0000143C01402DE9F84F0022DFF8EC
:1010500018A2DFF810924FF0010E03274FF00F088F
:10106000AAF1040B0EFA02FC0B6803EA0C036345B9
:101070007DD10C7904F00304012C01D0022C14D191
:101080008568540007FA04F6B543CE6806FA04F4FE
:101090002C438460446824EA0C0C0C79C4F30014DB
:1010A000944044EA0C0CC0F804C0D1F804C037EAFC
:1010B0000C0C0CD0C4684FEA420C07FA0CF5AC4398
:1010C0008D6805FA0CFC4CEA040CC0F80CC091F8D1
:1010D00004C00CF0030CBCF1020F12D14FEAD20C89
:1010E00000EB8C04256A4FEA427C4FEADC6C08FA7C
:1010F0000CF6B5430E6906FA0CFC4CEA050CC4F874
:1011000020C004684FEA420C07FA0CF5AC430D7995
:1011100005F0030505FA0CFC4CEA040CC0F800C00D
:10112000D1F804C01CF4403F7DD0D9F800C04CF485
:10113000804CC9F800C0D9F800C00CF4804CCDF840
:1011400000C022F0030C0CF1804505F59835D5F868
:1011500008C89407240F08FA04F62CEA0606A0F142
:10116000804CBCF5003C64D0A0F1804C00E05AE01B
:10117000BCF5013C60D0A0F1804CBCF5023C5ED0D7
:10118000A0F1804CBCF5033C5CD0A0F1804CBCF5D8
:10119000043C5AD0A0F1804CBCF5053C58D0A0F1DD
:1011A000804CBCF5063C56D0A0F1804CBCF5073C09
:1011B00054D04FF0080C0CFA04FC4CEA060CC5F8AD
:1011C00008C8DAF800C02CEA030C4C6814F4801F3D
:1011D00001D04CEA030CCAF800C0244CD4F800C07B
:1011E0002CEA030C4D6815F4001F01D04CEA030CE7
:1011F000C4F800C0DBF800C02CEA030C4C6814F4FF
:10120000003F01D04CEA030CCBF800C0184CD4F8D6
:1012100000C02CEA030C4D6815F4803F01D04CEA65
:10122000030CC4F800C0521C102AFFF41BAFBDE829
:10123000F88F4FF0000CBEE74FF0010CBBE74FF00A
:10124000020CB8E74FF0030CB5E74FF0040CB2E71F
:101250004FF0050CAFE74FF0060CACE74FF0070C72
:10126000A9E7000044380240083C01400C3C014022
:10127000003C0140426921EA0203114043EA014176
:1012800081617047002A01D0816170470904816142
:10129000704700000148806870470000740000201B
:1012A0000248816802781144816070477400002010
:1012B00010B50B48016841F400710160016841F408
:1012C00080610160016841F480710160032000F0D9
:1012D00091F8002000F006F800F026F8002010BD7C
:1012E000003C024070B504460D4D4FF47A712878E9
:1012F000B1FBF0F00B490968B1FBF0F000F000FE23
:1013000008B1012070BD102C07D200222146501ECA
:1013100000F03CF86C60002070BD012070BD000042
:10132000740000202000002008B500BF00200090BD
:101330000E48006840F480400C4908600846006888
:1013400000F48040009000BF00BF00BF002000906C
:10135000081F006840F08050091F086008460068B8
:1013600000F08050009000BF00BF08BD443802402C
:1013700000280ADB00F01F01012202FA01F14009F6
:10138000800000F1E020C0F80011704710B4184B45
:101390001B68C3F30223C3F1070CBCF1040F01D98E
:1013A0004FF0040C1C1D072C01D2002300E0DB1EB3
:1013B000012404FA0CFCACF1010C0CEA0101994087
:1013C00004FA03F35B1E1A401143002806DB00F108
:1013D000E020090180F8001410BC704700F00F00F5
:1013E00000F1E020090180F8141D10BC70470000D6
:1013F0000CED00E000F00700064A11684FF6FF030D
:10140000194041EA002040F0FD7040F0806010601B
:10141000704700000CED00E02DE9F04704460D4652
:10142000002C13D0DFF85491D9F80000EFB200F08F
:101430000700A8420DD289F80070D9F8000000F02A
:101440000700A84205D00120BDE8F0870120BDE8D3
:10145000F08720684A4E10F0020F14D010F0040FED
:1014600003D0306840F4E0503060207810F0080F6E
:1014700003D0306840F4604030603068A16820F0EC
:10148000F00008433060207810F0010F3ED0606813
:101490003C49012808D002280DD003280BD0096848
:1014A00011F0020F28D00AE0096811F4003F06D1BC
:1014B0000120BDE8F087096811F0007F19D031687C
:1014C00021F0030108433060FFF7E4FE80463068F6
:1014D000616800F00C00B0EB810F17D041F2883A40
:1014E000FFF7D8FEA0EB0800504508D90320BDE85F
:1014F000F0870120BDE8F0870120BDE8F087306863
:10150000616800F00C00B0EB810FE9D1D9F8000060
:1015100000F00700A8420AD989F80070D9F8000045
:1015200000F00700A84202D00120BDE8F087207833
:1015300010F0040F05D03068E16820F4E050084353
:101540003060207810F0080F06D03068216920F450
:10155000604040EAC100306000F042F831680A4A59
:10156000C1F30311515CC84008490860084800688D
:10157000FFF7B8FE0020BDE8F0870000003C024005
:101580000838024000380240BA4900082000002014
:10159000780000200148006870470000200000200B
:1015A00000B5FFF7F7FF04490968044AC1F3822137
:1015B000515CC84000BD000008380240CA4900081C
:1015C00000B5FFF7E7FF04490968044AC1F3423157
:1015D000515CC84000BD000008380240CA490008FC
:1015E00010B51748006810F00C01164816D0164BBD
:1015F000042912D0082911D1144C216801F03F02AE
:10160000216811F4800F0AD02068C0F38810A0FB75
:1016100003010023FEF7D4FD09E0184610BD216840
:101620000023C1F38811A1FB0001FEF7C9FD216869
:10163000C1F30141491C4900B0FBF1F010BD0000AD
:10164000083802400024F400001BB70004380240B0
:101650002DE9F84F0446002C12D02078FB4E10F0F4
:10166000010FA6F1040563D0301D016801F00C01E3
:1016700004290CD0006800F00C00082803D010E00A
:101680000120BDE8F88F306810F4800F09D0286879
:1016900010F4003F4CD06068002849D10120BDE81B
:1016A000F88F6068B0F5803F14D0B0F5A02F16D049
:1016B000286820F480302860286820F48020286082
:1016C000606810B3FFF7E6FD0746286810F4003F96
:1016D0000ED02DE0286840F480302860F0E72868BC
:1016E00040F480202860286840F480302860E7E7D4
:1016F000FFF7D0FDC01B642802D90320BDE8F88F96
:10170000286810F4003FF3D012E0FFF7C3FD07464E
:10171000286810F4003F0BD0FFF7BCFDC01B642805
:1017200002D90320BDE8F88F286810F4003FF3D1F8
:101730002078C74F10F0020F4FF0000957D0C5486E
:10174000016811F00C0F14D0006800F00C0008289C
:1017500003D1306810F4800F0BD0E06880B3012013
:101760003860FFF797FD8046286810F0020F12D00E
:101770001EE0286810F0020F05D0E068012802D0B2
:101780000120BDE8F88F2868216920F0F80040EAC0
:10179000C10028602BE0FFF77DFDA0EB08000228C8
:1017A00002D90320BDE8F88F286810F0020FF2D0AC
:1017B0002868216920F0F80040EAC100286016E09E
:1017C000FFE7C7F80090FFF765FD8046286810F036
:1017D000020F0CD0FFF75EFDA0EB0800022802D933
:1017E0000320BDE8F88F286810F0020FF2D12078AE
:1017F00010F0080F35D09848DFF860A26169C1B1D8
:1018000001210160FFF746FD8046DAF8000010F084
:10181000020F26D1FFF73EFDA0EB0800022802D9F7
:101820000320BDE8F88FDAF8000010F0020FF1D0C5
:1018300017E0C0F80090FFF72DFD8046DAF80000B1
:1018400010F0020F0DD0FFF725FDA0EB08000228D5
:1018500002D90320BDE8F88FDAF8000010F0020F7B
:10186000F1D1207810F0040F71D04FF000087C48BF
:10187000006810F0805F0AD17948016841F080511A
:101880000160006800F0805000904FF00108DFF820
:10189000D4B1DBF8000010F4807F1BD1DBF800002E
:1018A00040F48070CBF80000FFF7F4FC8246DBF8D0
:1018B000000010F4807F0DD1FFF7ECFCA0EB0A00D4
:1018C000022802D90320BDE8F88FDBF8000010F4ED
:1018D000807FF1D0A068DFF890B1012818D00528EA
:1018E0001DD0DBF8000020F00100CBF80000DBF891
:1018F000000020F00400CBF80000A06840B3FFF720
:10190000C9FC8246DBF8000010F0020F14D03EE064
:10191000DBF8000040F00100CBF80000EDE7DBF859
:10192000000040F00400CBF80000DBF8000040F0BD
:101930000100CBF80000E0E7FFF7ACFCA0EB0A01E8
:1019400041F28830814204D90320BDE8F88F26E0B7
:1019500005E0DBF8000010F0020FEDD017E0FFF714
:1019600099FC8246DBF8000010F0020F0FD0FFF761
:1019700091FCA0EB0A0141F28830814202D9032098
:10198000BDE8F88FDBF8000010F0020FEFD1B8F1DE
:10199000010F04D13248016821F080510160A06933
:1019A000F0B32C4909684FF0FF3801F00C01082909
:1019B00066D0022810D0C7F86090FFF76BFC044691
:1019C000286810F0007F2BD0FFF764FC001B022872
:1019D00051D90320BDE8F88FC7F86090FFF75AFC93
:1019E0008146286810F0007F0CD0FFF753FCA0EB75
:1019F0000900022802D90320BDE8F88F286810F0FA
:101A0000007FF2D1216AE069A26A0843616A08EBAB
:101A10005202890141EA0241084394F82C1000E087
:101A200055E040EA0160306001203866FFF732FC83
:101A30000446286810F0007F49D1FFF72BFC001BFB
:101A4000022813D90320BDE8F88F000004380240B3
:101A50000000474208380240800E47427438024076
:101A6000403802400070004070380240286810F092
:101A7000007FE2D02BE0286810F0007FA4D126E0A0
:101A8000012822D03068E26900F4800191421AD125
:101A9000226A00F03F01914215D147F6C071626A97
:101AA0000140B1EB821F0ED1A26A00F4403108EB75
:101AB0005202B1EB024F06D194F82C1000F0706086
:101AC000B0EB016F03D00120BDE70120BBE7002090
:101AD000B9E770B50446002C09D0606A002540B112
:101AE00025616561A56294F8510040B10CE00120C8
:101AF00070BD6068B0F5827FF4D0E561F2E784F8EC
:101B00005050204600F044F8022084F8510020682C
:101B1000016821F040010160A088218900F48270F1
:101B200001F404410843A18901F400610843217CC8
:101B300001F002010843217D01F001010843218BDE
:101B400001F400710843217F01F03801084394F843
:101B5000201001F080010843218D01F40051084359
:101B600021680860A169042000EA114094F824105B
:101B700001F010010143206841602068C16921F42F
:101B80000061C1616565012084F85100002070BDCD
:101B900010B586B00446142101A8FEF749FB4B4955
:101BA000206888427ED100BF00200090484800682D
:101BB00040F48050464908600846006800F48050B0
:101BC000009000BF00BF00BF0020009040481438C4
:101BD000006840F002003E49143908600846006879
:101BE00000F00200009000BF00BF00BF0020009086
:101BF0000846006840F0010008600846006800F0F0
:101C00000100009000BF00BF182001900220029048
:101C100000200390032004900520059001A92D4881
:101C2000FFF712FA8020019002200290002003901A
:101C3000032004900520059001A92748FFF704FA26
:101C40002648274908604FF0C060486000212448BA
:101C50008160C1604FF48061016100214161816157
:101C6000C1614FF44031016200214162FFF71CF96C
:101C700008B1FEF7BFFF00BF1948E064846300BFEE
:101C800016481830174908604FF0C060486040217E
:101C9000144881600021C1604FF48061016100211E
:101CA000416100E010E08161C1614FF400310162E7
:101CB00000214162FFF7F8F808B1FEF79BFF00BF73
:101CC0000848A064846300BF06B010BD0030014026
:101CD00044380240000402400000024040640240D8
:101CE00000010020600100202DE9F84F04460A9E03
:101CF0008A4693461F460125FFF7CCFA804694F8A2
:101D000051006168012809D0B1F5827F03D1A16833
:101D100009B9042802D00220BDE8F88FBAF1000FFB
:101D200028D0BBF1000F25D0380023D094F8500004
:101D3000012822D0012084F8500094F85100042892
:101D400002D0052084F851004FF00009C4F85490E7
:101D5000C4F838B0E787A787C4F830A0E786A7861D
:101D6000C4F84090C4F844902068016811F0400F16
:101D700006D009E00120BDE8F88F0220BDE8F88F09
:101D8000016841F040010160E068B0F5006F05D0E6
:101D9000606800284DD0012F4BD083E0606808B107
:101DA000012F3FD1206B21680088C860206B801C08
:101DB0002063E08E401EE08634E02068816811F0E8
:101DC000020F0DD0E18E59B1012D09D1216B098887
:101DD000C160206B801C2063E08E401EE0860025E1
:101DE0002068816811F0010F0BD0E18F49B1C06804
:101DF000A16B0880A06B801CA063E08F401EE08771
:101E00000125FFF747FAA0EB0800B0420AD3B6F16C
:101E1000FF3F07D0012084F8510084F85090032040
:101E2000BDE8F88FE08E0028C7D1E08F0028C4D12C
:101E30003EE0206B216800780873206B401C206313
:101E4000E08E401EE0862DE02068816811F0020FD0
:101E50000DD0E18E59B1012D09D1216B09780173A3
:101E6000206B401C2063E08E401EE0860025206829
:101E7000816811F0010F0BD0E18F49B1C068A16BEF
:101E80000870A06B401CA063E08F401EE087012516
:101E9000FFF700FAA0EB0800B04202D3B6F1FF3F13
:101EA00013D196B1E08E0028CED1E08F0028CBD19F
:101EB00042463146204601F053F970B1202060655A
:101EC00084F850900120BDE8F88F012084F851007B
:101ED00084F850900320BDE8F88FA06818B92068F6
:101EE000C16880680090012084F8510084F8509007
:101EF000606D10B10120BDE8F88F0020BDE8F88FBB
:101F0000401EB0F1807F01D3012070474FF0E021E7
:101F10004861044AF02010700020886107200861A1
:101F20000020704723ED00E010B50446002C03D0DC
:101F300094F83D0010B107E0012010BD002084F8A6
:101F40003C00204600F01EF8022084F83D00211DD0
:101F5000206801F045FA012084F8460084F83E002C
:101F600084F83F0084F8400084F8410084F842007F
:101F700084F8430084F8440084F8450084F83D0068
:101F8000002010BD08B50A4A016891420FD100BF78
:101F9000002100910749096841F40031054A1160A8
:101FA0001146096801F40031009100BF00BF08BD6F
:101FB000004401404438024010B586B00446142164
:101FC00001A8FEF735F91249206888421DD100BFEB
:101FD000002000900F48006840F020000D49086084
:101FE0000846006800F02000009000BF00BF4020BD
:101FF000019002200290012003900220049003200F
:10200000059001A90448FFF71FF806B010BD0000B5
:1020100000440140303802400014024070B50446CC
:102020000D46002694F83C0001280FD0012084F8CA
:102030003C006AB1042A1FD0082A32D00C2A44D0AE
:102040000126002084F83C00304670BD022070BD9F
:102050002946206801F036FA2068816941F00801BC
:1020600081612068816921F00401816120688169B2
:102070002A6911438161E4E72946206801F05AFA90
:102080002068816941F4006181612068816921F4DF
:1020900080618161206881692A6941EA0221816148
:1020A000CFE72946206801F081FA2068C16941F034
:1020B0000801C1612068C16921F00401C161206883
:1020C000C1692A691143C161BBE72946206801F053
:1020D000A9FA2068C16941F40061C1612068C16941
:1020E00021F48061C1612068C1692A6941EA022145
:1020F000C161A6E710B50446002C03D094F83D005A
:1021000010B107E0012010BD002084F83C002046FB
:1021100000F01EF8022084F83D00211D206801F027
:102120005FF9012084F8460084F83E0084F83F00FF
:1021300084F8400084F8410084F8420084F84300A9
:1021400084F8440084F8450084F83D00002010BD68
:102150007047704710B5044620684069C0F3C0104E
:1021600094F84110212911D180B12068143050E831
:10217000001F21F0800140E80012002AF5D1A06B79
:1021800008B1FEF738FD204601F057FB2068406992
:10219000C0F3801094F84210222911D180B1206838
:1021A000143050E8001F21F0400140E80012002ADE
:1021B000F5D1E06B08B1FEF71EFD204601F009FBEA
:1021C000002010BD70470000F8B504462268106872
:1021D000D168536900F00F0CBCF1000F0AD110F068
:1021E000200F07D011F0200F04D02046BDE8F840A2
:1021F00001F031BB0025BCF1000F75D003F0010CDC
:1022000001F490765CEA06066ED010F0010F06D05D
:1022100011F4807F03D0626C42F00102626410F01E
:10222000040F06D013F0010F03D0626C42F00202DB
:10223000626410F0020F06D013F0010F03D0626C3D
:1022400042F00402626410F0080F08D001F020028E
:1022500052EA0C0203D0626C42F008026264626CC3
:10226000002A35D010F0200F05D011F0200F02D039
:10227000204601F0F0FA20684069C0F38010616CDC
:1022800011F0080F00D148B3204601F0A2FA2068EF
:10229000406910F0400F1CD02068143050E8001F37
:1022A00021F0400140E80012002AF5D1E06B60B156
:1022B0005E490165E06BFEF7EFFC002808D0E06B9B
:1022C000016D01B0BDE8F04008472046FFF77AFFF6
:1022D000F8BD2046FFF776FFF8BD05E0FFE7204692
:1022E000FFF770FF6564F8BD236B012B7ED110F002
:1022F000100F7BD011F0100F78D01068506800904C
:1023000050694FF0200310F0400F4FF0020644D008
:10231000E16B0868406880B20028E4D0A28D824258
:10232000E1D9E085C869B0F5807F2DD020680C30F8
:1023300050E8001F21F4807140E80012002AF5D116
:102340002068143050E8001F21F0010140E800121D
:10235000002AF5D12068143050E8001F21F0400118
:1023600040E80012002AF5D184F842302563206845
:102370000C3050E8001F21F0100140E80012002A44
:10238000F5D1E06BFEF737FC6663A08DE18D401A56
:1023900081B22046FFF7DDFEF8BDA08DE18D401A29
:1023A00081B2E08D0028F7D00029F5D020680C30EC
:1023B00050E8002F22F4907240E8002CBCF1000F8E
:1023C000F4D12068143050E8002F22F0010240E8D8
:1023D000002CBCF1000FF4D184F842302563206852
:1023E0000C3050E8002F22F0100200E008E040E836
:1023F0000023002BF3D166632046FFF7AAFEF8BD49
:1024000010F0800F07D011F0800F04D02046BDE8F7
:10241000F84001F053BB10F0400FF0D011F0400F26
:10242000EDD02046BDE8F84001F0FAB97D3600084D
:1024300070B50446002C04D094F84100002510B17A
:1024400006E0012070BD84F84050204600F024F8DA
:10245000242084F841002068C16821F40051C16043
:10246000204601F05DFA2068016921F49041016184
:102470002068416921F02A0141612068C16841F466
:102480000051C1606564202084F8410084F8420056
:102490006563002070BD000010B586B004461421AD
:1024A00001A8FDF7C5FE40492068884279D100BFE8
:1024B000002000903D48006840F020003B49086043
:1024C0000846006800F02000009000BF00BF00BF79
:1024D0000020009035481438006840F0400033492F
:1024E000143908600846006800F04000009000BF02
:1024F00000BF4FF48440019002200290002003901E
:10250000032004900820059001A92948FEF79CFDAE
:1025100028482949086080054860002126488160D4
:10252000C1604FF480610161002141618161C1613D
:102530004FF48031016200214162FEF7B5FC08B121
:10254000FEF758FB00BF1C48E063846300BF1948D6
:1025500078301A4908604FF02060486040211748E1
:1025600081600021C1604FF48061016100214161FF
:102570008161C1614FF48031016200214162FEF747
:1025800093FC08B1FEF736FB00BF0C48A0638463E0
:1025900000BF002211464720FEF7F8FE4720FEF755
:1025A000E7FE06B010BD00000014014044380240B0
:1025B0000018024028640240B402002014030020E6
:1025C00090F84230202B01D00220704721B11AB17F
:1025D0000023036301F022BA01207047704770475F
:1025E00037B5044694F84100202802D003B00220F9
:1025F00030BD0199002933D0002A31D02162A28454
:10260000E28400206064212384F84130D4F838C08B
:10261000154BCCF83C30D4F838C0144BCCF84030D3
:10262000D4F838C0124BCCF84C30A36B1865206836
:10263000134600F1040C6246A06BFEF7ABFC216868
:102640006FF0400008602068143050E8001F41F02F
:10265000800140E80012002AF5D103B0002030BD0F
:1026600003B0012030BD000085370008C9370008DD
:102670008D3600087047704700BFFEE7F0EE400A55
:1026800090ED000A90ED021A30EE010A80ED000A8A
:1026900090ED000A90ED031A30EE010A90ED001A59
:1026A000C1EE001AC0ED011A90ED040A90ED011A76
:1026B000D0ED041A70EEE11A01EE210A80ED040A51
:1026C00090ED010AB7EE001A31EE400A90ED001AC3
:1026D00020EE010A80ED000A90ED040A7047000028
:1026E00008B500BF002000901648006840F4800044
:1026F000144908600846006800F48000009000BF9C
:1027000000BF002211463920FEF740FE3920FEF7B7
:102710002FFE002205213A20FEF738FE3A20FEF770
:1027200027FE002211463B20FEF730FE3B20FEF73D
:102730001FFE002211464520FEF728FE4520FEF729
:1027400017FE08BD3038024000B587B0142102A83A
:10275000FDF76EFD00BF002001905348006840F077
:102760004000514908600846006800F040000190B0
:1027700000BF00BF00BF002001900846006840F085
:10278000020008600846006800F00200019000BFE7
:1027900000BF00BF002001900846006840F0010023
:1027A00008600846006800F00100019000BF00BF0B
:1027B00000BF002001900846006840F080000860DB
:1027C0000846006800F08000019000BF00BF00BF15
:1027D000002001900846006840F02000086008468C
:1027E000006800F02000019000BF00BF00BF002083
:1027F00001900846006840F0040008600846006840
:1028000000F00400019000BF00BF00228914274897
:10281000FEF738FD012210212548FEF733FD012285
:1028200011462448FEF72EFD4FF4805002900120FF
:102830000390002004900120059002A91B48FEF798
:1028400003FC1020029001200390049002200590C8
:1028500002A91748FEF7F8FB302002904FF404104D
:1028600003900120049002A91348FEF7EDFB01201C
:102870000290039004900220059002A90D48FEF7F3
:10288000E3FB002211460A20FEF780FD0A20FEF736
:102890006FFD002211461720FEF778FD1720FEF786
:1028A00067FD07B000BD000030380240001C024048
:1028B00000000240000402400008024010B50F482A
:1028C0000F4908604FF48270486000210C48816015
:1028D000C160022101610121416149028161382108
:1028E000C16100210162416281620A21C162FFF778
:1028F000F0F808B1FEF77EF910BD0000003001408D
:10290000A800002000B587B01C216846FDF790FCA8
:10291000154816490860002048600021134881606E
:1029200041F28731C160002101618161FFF7FCFA4A
:1029300008B1FEF75FF90D48FFF7DCFB08B1FEF7C1
:1029400059F960200090002001900290049000222C
:1029500069460648FFF762FB08B1FEF74BF90348EA
:10296000FFF72AFB07B000BD00440140C001002072
:1029700010B51148114908604FF4E130486000215A
:102980000E488160C16001610C21416100218161BB
:10299000C161FFF74DFD08B1FEF72CF9074800684B
:1029A000C06840F0100005490968C8606422044905
:1029B0000248FFF705FE10BD001401406C02002024
:1029C0000802002000B52DED108B95B0B0EE40AAA6
:1029D000F0EE60AAB0EE41BAB0EE619AF0EE428A33
:1029E000F0EE629AFE4890ED000A2AEE000AB0EE80
:1029F00040AA90ED000A2AEE800AF0EE40AA90ED7F
:102A0000000A2BEE000AB0EE40BAF64890ED000A3C
:102A1000B1EE400A20EE0A0AF348D0ED000A00EEBB
:102A2000EA0AF248D0ED000A00EECB0AF6EE000A00
:102A300020EE200A8DED130AED4890ED000A20EEFD
:102A40000A0AE948D0ED000A00EE8B0AE748D0ED0B
:102A5000000A00EEEA0AF6EE000A20EE200A8DEDEA
:102A6000120AE34890ED000A20EE2A0ADD48D0ED74
:102A7000000A00EECB0ADD48D0ED000A00EE8A0A1B
:102A8000F6EE000A20EE200A8DED110AD84890EDEE
:102A9000000A20EE0B0AD348D0ED000A00EEAA0A85
:102AA000D148D0ED000A00EECA0AF6EE000A20EE88
:102AB000200A8DED100AB5EEC09AF1EE10FA09D198
:102AC000F5EEC08AF1EE10FA04D1F5EEC09AF1EEFF
:102AD00010FA7DD069EE090A48EEA80A49EEA90A63
:102AE000B0EE600A01F060FEB0EE408A29EE080AFE
:102AF000B0EE409A28EE880AF0EE408A29EE880A65
:102B0000F0EE409ABA4890ED000AF0EE000A60EE4E
:102B100020FAB44890ED000AF0EE000A20EE200AF8
:102B20008DED0F0AB04890ED000AF0EE000A20EE9D
:102B3000200A8DED0E0AAD4890ED000AF0EE000A75
:102B400020EE200A8DED0D0AA94890ED000AF1EE65
:102B5000000A20EE200A8DED0C0AA24890ED000A32
:102B6000F1EE000A20EE20EA9F4890ED000AF1EE17
:102B7000000A60EE20EA9B4890ED000AF2EE000A9F
:102B800020EE200A8DED0B0A974890ED000AF2EE38
:102B9000000A20EE200A8DED0A0A954890ED000A01
:102BA000D0ED000A20EE200A8DED090A8D4890ED47
:102BB000000AD0ED000A60EE20BA8B4890ED000AC2
:102BC000D0ED000A20EE20CA884890ED000A00E00F
:102BD000B6E0D0ED000A20EE200A8DED080A9DED4A
:102BE0000C0A20EE0C0ADDED0E0A00EE890ADDED7E
:102BF0000C0A00EEAB0ADDED0F0A00EEE80AB0EEBB
:102C000040FA9DED080A2EEE000ADDED0D0A00EEF9
:102C1000C90ADDED090AB1EE001A60EE810A7148B9
:102C200090ED001A00EE810A0FEEE80A70EE4E0AEF
:102C30009DED0B0A40EE2B0A9DED0B0A40EE0C0AAF
:102C40004EEE290AF0EE60CA9DED090AF1EE000A87
:102C500020EE200A6448D0ED000A60EE200A4FEE14
:102C6000890A9DED080A4EEE800A9DED0D0A40EEA0
:102C7000680A70EEEE0A9DED0A0A40EE2B0A9DED01
:102C80000A0A40EE0C0A4EEEA90AB0EE60DAB1EE86
:102C9000000A2BEE800A5548D0ED000A60EE200AAB
:102CA0009DED0F0A40EE490AB1EE000A2CEE000A33
:102CB00090ED001A40EE010A9DED0E0A40EE680A02
:102CC000F0EE60DA6FEE0F0A4CEEAC0A4DEE0D0A34
:102CD0004DEEAD0AB0EE600A01F066FDB0EE408A3E
:102CE0002FEE080AB0EE40FA2CEE880AF0EE40CA49
:102CF0002DEE080AB0EE40DA2DEE880AF0EE40DA4A
:102D00009DED130ADFED3B0A00EECF0A8DED130AAD
:102D10009DED120ADFED370A00EEEC0A8DED120A86
:102D20009DED110ADFED330A00EECD0A8DED110A9B
:102D30009DED100ADFED2F0A00EEED0A8DED100A71
:102D40002D4890ED000AF7EE000A80EE801A284820
:102D5000D0ED000A9DED130A40EE010AC0ED000A15
:102D6000254890ED000AF7EE000A80EE801A1D4813
:102D7000D0ED000A9DED120A40EE010AC0ED000AF6
:102D80001D4890ED000AF7EE000A80EE801A164802
:102D9000D0ED000A9DED110A40EE010AC0ED000AD7
:102DA000154890ED000AF7EE000A80EE801A0F48F1
:102DB000D0ED000A9DED100A40EE010AC0ED000AB8
:102DC0000B48D0ED000A90ED001A60EE810A05482C
:102DD00090ED001AD0ED001A41EE210A02480DE0F4
:102DE00044000020280000202C000020300000209B
:102DF00024000020CDCCCC3D4000002090ED001AF6
:102E0000D0ED001A41EE210A7F4890ED001AD0ED76
:102E1000001A41EE210AB0EE600A01F0C5FCB0EEE6
:102E2000408A7A4890ED000A20EE080A80ED000AF8
:102E3000774890ED000A20EE080A80ED000A7548F8
:102E400090ED000A20EE080A80ED000A6E4890ED31
:102E5000000A20EE080A80ED000A6D4890ED000A95
:102E60006948D0ED000A20EE200A6848D0ED000A3B
:102E7000684890ED001A00EEC10AF8EE000A20EE54
:102E8000200A10EE101A0846FDF74FFACDE90201AC
:102E90009DED020B00F08CFE8DED040B9FED5E0BA3
:102EA00053EC102B9DED040B51EC100BFDF7CBF9FF
:102EB000CDE906019DED060B51EC100BFDF748FA2C
:102EC00000EE100A564880ED000A5148D0ED000A85
:102ED00090ED001AB6EE000A00EEC10A4D48D0EDA2
:102EE000000A90ED001A00EEC10A10EE101A084612
:102EF000FDF71BFACDE90201444890ED000A444871
:102F0000D0ED000A20EE200A4248D0ED000A3E48EB
:102F100090ED001A00EE810A10EE101A0846FDF737
:102F200004FACDE900019DED021B9DED000B01F0BF
:102F30005BF98DED040B9FED380B53EC102B9DEDE1
:102F4000040B51EC100BFDF77EF9CDE906019DED68
:102F5000060B51EC100BFDF7FBF900EE100A31489F
:102F600080ED000A2B48D0ED000A90ED001AB6EE75
:102F7000000A00EEC10A2448D0ED000A90ED001AC4
:102F800000EEC10A10EE101A0846FDF7CEF9CDE9A1
:102F900002011F4890ED000A1E48D0ED000A20EE05
:102FA000200A1A48D0ED000A174890ED001A00EEEA
:102FB000810A10EE101A0846FDF7B7F9CDE90001B5
:102FC0009DED021B9DED000B01F00EF98DED040B44
:102FD0009FED110B53EC102B9DED040B51EC100BDE
:102FE000FDF731F9CDE906019DED060B51EC100B13
:102FF000FDF7AEF900EE100A0B4880ED000A15B09F
:10300000BDEC108B00BD000030000020240000202B
:10301000280000202C0000200000006066A64C4024
:1030200034000020380000203C0000202DE9F0474B
:103030002DED048B04460D4616461F46DDE90C892E
:1030400094ED000ADFED3F0A80EE201A3E4890ED35
:10305000000A21EE000A84ED000AD5ED000A9FED7A
:10306000391A80EE810AD0ED000A20EE200A85EDA3
:10307000000A96ED000A9FED331AC0EE010A90EDAA
:10308000000A20EE800A86ED000A97ED000A9FED07
:103090002D1AC0EE010A2D4890ED000A20EE800A9C
:1030A00010EE10AA5046FDF740F941EC190B9FEDC8
:1030B000280B53EC102BFDF7C6F841EC180BFDF76D
:1030C00047F93860D8ED000A9FED1E1A80EE810A9C
:1030D0001E48D0ED000A20EE200A10EE10AA50463D
:1030E000FDF723F941EC190B9FED190B53EC102B55
:1030F000FDF7A9F841EC180BFDF72AF9C8F8000014
:10310000D9ED000A9FED0F1A80EE810A0F48D0ED2D
:10311000000A20EE200A10EE10AA5046FDF705F92D
:1031200041EC190B9FED0A0B53EC102BFDF78BF8BC
:1031300041EC180BFDF70CF9C9F80000BDEC048B4D
:10314000BDE8F087000000474C0000204800002048
:103150008FC2F5285C8F234000BFFEE770477047A1
:1031600070B582B004460E46154633460122022150
:103170002046009500F036F830B1606D40F0200038
:10318000606502B0032070BD144815490068B0FBAB
:10319000F1F04FF47A71484301906068B0F5827F96
:1031A0000ED13346002280212046009500F01AF807
:1031B00080B1606D40F02000606502B0032070BDFA
:1031C000019838B10198401E01902068806810F085
:1031D000800FF5D102B0002070BD0000200000205B
:1031E00000366E012DE9F84304460F469046994695
:1031F000089DFEF74FF8401BA9EB0005FEF74AF8C3
:1032000006462D480068C0F3CB3068430090206824
:10321000806837EA00000ED00020404546D0B9F162
:10322000FF3F3BD0FEF736F8801BA84205D225B100
:10323000009870B32FE00120EFE72068416821F08B
:10324000E00141606068B0F5827F0BD1A068B0F505
:10325000004F02D0B0F5806F04D12068016821F0E2
:1032600040010160A06AB0F5005F09D120680168E3
:1032700021F4005101602068016841F400510160AF
:10328000012084F85100002084F850000320BDE89C
:10329000F883FFE700250098401E009020688068B2
:1032A00037EA000005D000204045B8D10020BDE835
:1032B000F8830120F8E7000020000020704710B5D7
:1032C000FDF7EEFF10BD000000B593B0302107A858
:1032D000FCF7AEFF142102A8FCF7AAFF00BF0020F4
:1032E00001902448006840F0805022490860084658
:1032F000006800F08050019000BF00BF00BF0020B8
:1033000001901D48006840F480401B490860084651
:10331000006800F48040019000BF00BF01200790CA
:103320000004089002200D9041050E9106210F9196
:10333000A8211091022111910721129107A8FEF7EF
:1033400087F908B1FDF756FC0F2002900220039088
:10335000002004904FF4A05005904FF48050069048
:10336000052102A8FEF758F808B1FDF743FC13B099
:1033700000BD000040380240007000401448006862
:1033800040F47000124908601248006840F00100E3
:103390001049086000200F49083108600D48006896
:1033A0000D4908400B4908600C48091D0860081FBA
:1033B000006820F48020091F0860002005490C31B6
:1033C00008604FF0006002498039086070470000D3
:1033D00088ED00E000380240FFFFF6FE10300024C8
:1033E000F0B40268324BDFF8CCC0334D334E344C6E
:1033F00098420AD0B0F1804F07D0604505D0A8426E
:1034000003D0B04201D0A04203D122F070024F6835
:103410003A43984228D0B0F1804F25D0604523D060
:10342000A84221D0B0421FD0A0421DD0A0F1804CB4
:10343000BCF5A03C18D0A0F1804CBCF5A23C13D048
:10344000A0F1804CBCF5A43C0ED0A0F1804CBCF5A2
:10345000C05C09D0A0F1804CBCF5E05C04D0A0F1C8
:10346000804CBCF5005C05D122F44072D1F80CC050
:103470004CEA0202D1F814C022F0800242EA0C02A7
:1034800002608A68C2620A688262984201D0A042E1
:1034900001D10969016301214161016911F0010F45
:1034A00003D0016921F001010161F0BC7047000007
:1034B000000001400004004000080040000C0040F3
:1034C0000004014070B4026A036A23F0010303623E
:1034D0004368D0F818C02CF0700C2CF0030C0C686A
:1034E00044EA0C0C22F002028C6822430F4C104D6F
:1034F000A04201D0A84205D122F00802CE68324392
:1035000022F00402A04201D0A84207D123F4807324
:1035100023F400734C6923438C6923434360C0F850
:1035200018C049684163026270BC704700000140E6
:103530000004014070B4026A036A23F010030362BE
:103540004368D0F818C02CF4E04C2CF4407C0C6894
:103550004CEA042C22F020028C6842EA0412114C3E
:10356000114DA04201D0A84206D122F08002CE68BF
:1035700042EA061222F04002A04201D0A84209D13C
:1035800023F4806323F400634C6943EA84038C6969
:1035900043EA84034360C0F818C04968816302624B
:1035A00070BC7047000001400004014070B4026A22
:1035B000036A23F4807303624368D0F81CC02CF0C4
:1035C000700C2CF0030C0C6844EA0C0C22F4007212
:1035D0008C6842EA0422114C114DA04201D0A8424D
:1035E00006D122F40062CE6842EA062222F480620A
:1035F000A04201D0A84209D123F4805323F4005300
:103600004C6943EA04138C6943EA04134360C0F82D
:103610001CC04968C163026270BC70470000014071
:103620000004014010B4036A026A22F4805202626C
:103630004268D0F81CC02CF4E04C2CF4407C0C68A0
:103640004CEA042C23F400538C6843EA0433A0F1C1
:103650008044B4F5803404D0A0F18044B4F58234C1
:1036600004D122F480424C6942EA84124260C0F8DC
:103670001CC049680164036210BC704710B5806BC0
:103680000021C185C184FEF79DFD10BD70B5846B1E
:1036900020684069C0F3C01094F84110002521292A
:1036A00004D118B1E584204600F0C7F820684069CD
:1036B000C0F3801094F84210222904D118B1E58596
:1036C000204600F086F8606C40F0100060642046F0
:1036D000FEF778FD70BD10B50146886B0968096872
:1036E0004FF0000311F4807F32D1C38501680C31A3
:1036F00051E8002F22F4807241E8002CBCF1000F49
:10370000F4D10168143151E8002F22F0010241E8A0
:10371000002CBCF1000FF4D10168143151E8002FE6
:1037200022F0400241E8002CBCF1000FF4D120212E
:1037300080F84210016B01290AD101680C3151E86F
:10374000002F22F0100241E8002CBCF1000FF4D150
:103750004363016B012902D0FEF740FF10BD818D4C
:10376000FEF7F7FC10BD10B5806B01214163016BC2
:10377000012902D0FEF733FF10BD818D4908FEF705
:10378000E8FC10BD10B50146886B0968096811F4A2
:10379000807F02D0FEF76EFF10BD0021C18401685A
:1037A000143151E8002F22F0800241E80023002B61
:1037B000F5D101680C3151E8002F42F0400241E898
:1037C0000023002BF5D110BD10B5806BFEF753FF21
:1037D00010BD01680C3151E8002F22F4907241E8CD
:1037E0000023002BF5D10168143151E8002F22F09D
:1037F000010241E80023002BF5D1016B012909D119
:1038000001680C3151E8002F22F0100241E800233A
:10381000002BF5D1202180F8421000210163704770
:1038200010B50168CA6822F04002CA60202180F801
:103830004110FEF71FFF002010BD01680C3151E858
:10384000002F22F0C00241E80023002BF5D12021F7
:1038500080F84110704708B590F84210222901D035
:10386000022008BD8268B2F5805F01D1016929B1EB
:10387000816AB2F5805F1DD052B10BE0816A0268A7
:103880005268C2F308020A80816A891C816209E0D9
:1038900002697AB10268526802F07F020A70816A96
:1038A000491C8162C18D491E0904090CC18505D0DE
:1038B000002008BD026852680A70F0E70168CA6813
:1038C00022F02002CA600168CA6822F48072CA60CD
:1038D00001684A6922F001024A61202180F8421001
:1038E00000214163026B012A03D0FEF777FE00201E
:1038F00008BD016301680C3151E8002F22F010026D
:1039000041E80023002BF5D101680A6812F0100F7E
:1039100002D00A6849680091818DFEF71AFCE6E73B
:103920002DE9F041044620680169E26821F4405124
:10393000114301612169A068E2690843616911438B
:1039400001432068C26822F4037222F41442114336
:10395000C16020684169A26921F44071114341614D
:103960002068A0F18041B1F588312ED0A0F18041CE
:10397000B1F58A3129D0FDF713FE8446E1690020B4
:103980001927254D3226B1F5004F22D06068830FEC
:103990008200ACFB0701FCF713FC0146A5FB0020ED
:1039A00040097A42424301EB820106EB0111A5FB7B
:1039B0000121490901F0F00202EB001001F00F01B2
:1039C000084421688860BDE8F081FDF7F9FD844670
:1039D000D4E761684A1840EB0003ACFB0701FCF731
:1039E000EFFB0346A5FB0010410918460A016FF0E2
:1039F0001803594300EB810006EBC000A5FB001043
:103A0000400900F0F80102EB410100F00700084412
:103A100021688860BDE8F0811F85EB5117B581B042
:103A200004461346029AA262A38500206064222104
:103A300084F84210D4F83CC01D49CCF83C10D4F8AE
:103A40003CC01C49CCF84010D4F83CC01A49CCF812
:103A50004C10E16B08652068011DE06BFDF79AFAD8
:103A60002068016840680090206948B120680C30E7
:103A700050E8001F41F4807140E80012002AF5D19F
:103A80002068143050E8001F41F0010140E80012A6
:103A9000002AF5D12068143050E8001F41F04001A1
:103AA00040E80012002AF5D104B0002010BD00004B
:103AB000D7360008673700088D36000890F84110A7
:103AC000212901D0022070478168B1F5805F01D1C2
:103AD000016961B1016A4A1C026202680978516099
:103AE000C18C491E0904090CC1840AD013E0016A83
:103AF00002680988C1F308015160016A891C0162EA
:103B0000EEE70168CA6822F08002CA600068C168F6
:103B100041F04001C16000207047000038B5002529
:103B2000114800680068C0F30015CDB100BF002047
:103B300000900D480068006800900B4800684068DD
:103B4000009000BF00BF0848FEF704FB074800686C
:103B50004468C4F1640006490870012005490870F2
:103B60000148FEF731FB38BD6C020020B402002092
:103B70001C0000201D00002000BFFEE703B40198D8
:103B80004100009850EAC12018BF04204A0D18BF18
:103B900040F0010040F2FF72B2EB515F08BF40F00D
:103BA0000200012808BF052002B070470000000095
:103BB00070B5C1482DED020B2DED0E8B82B0119D1D
:103BC00025F000449FEDBEDB9FEDBFEB84423EDB62
:103BD000A4F140511098A1F17F6108430FD0BC4877
:103BE000844202DC28D1109830B39DED100B02B056
:103BF000BDEC0E8B02B0BDE8704000F069BC9DEDDD
:103C0000100B53EC1D2B51EC100BFCF71CFB9DED26
:103C1000100B41EC180B53EC1E2B51EC100BFCF766
:103C200012FB53EC182BFCF762FC41EC100B02B0BA
:103C3000BDEC0E8B02B070BD012000F08DFC02B017
:103C4000BDEC0E8B02B0BDE8704000F055BCA14841
:103C50009FEDA18B844256DA9DED100BB4F1795F94
:103C60000ADA51EC100BFFF789FF042808BF00F0B7
:103C700053FC9DED100BDAE753EC102B51EC100BBD
:103C8000FCF7E1FA41EC190B95480621B0EE490A20
:103C9000F0EE690A784400F09FFB53EC192B51ECCD
:103CA000100BFCF7D0FA41EC1A0B8E48B0EE490A23
:103CB000F0EE690A0421784400F08EFB53EC192BD6
:103CC00051EC100BFCF7BFFA53EC182BFCF70FFC70
:103CD00041EC100B51EC1A0B53EC102BFCF7AEFC23
:103CE000CDE900019DED000B53EC102B9DED100B69
:103CF00051EC100BFCF7A7FA9DED101B53EC112BA8
:103D0000FCF7F5FBD2E09DED100B51EC100B00F031
:103D10003FFD53EC182BFCF78EFC9FED730BCDE9A8
:103D2000000153EC102B9DED000B51EC100BFCF738
:103D30008AFA41EC190B6E480621B0EE490AF0EE02
:103D4000690A784400F048FB53EC192B51EC100B36
:103D5000FCF779FA41EC1B0B6648B0EE490AF0EE2D
:103D6000690A0421784400F037FB53EC192B51EC1D
:103D7000100BFCF768FA53EC182BFCF7B8FB41EC7E
:103D80001C0B51EC190B00F0E1FD41EC180B5A48EB
:103D90009FED5BABA04222DC53EC1C2B51EC1B0BC8
:103DA000FCF74CFCCDE900019DED000B51EC180B2C
:103DB00053EC102BFCF747FA53EC182BFCF797FB4E
:103DC00053EC1A2BFCF73FFA53EC1D2BFCF730FC9D
:103DD00053EC1E2BFCF72FFC41EC100B5FE08DED3C
:103DE000008B002000909DED000B51EC180B53EC64
:103DF000102BFCF77CFB9DED000B41EC1E0B53ECF4
:103E0000102B51EC100BFCF71EFA53EC192BFCF79E
:103E100012FC53EC1E2BFCF711FC41EC190B53EC7C
:103E20001C2B51EC1B0BFCF709FC41EC1B0B53EC5E
:103E30001A2B51EC190BFCF706FA53EC1D2BFCF76F
:103E4000FAFB41EC190B53EC1A2B51EC180BFCF755
:103E5000FAF953EC1B2BFCF7F6F953EC192BFCF792
:103E6000E7FB9DED000B41EC180B53EC1A2B51ECCA
:103E7000100BFCF7E8F99FED249B53EC192BFCF792
:103E8000DAFB41EC100B51EC180B53EC102BFCF748
:103E9000CFFB53EC192BFCF7CEFB41EC100B002DA4
:103EA0003FF7C5AE51EC100B81F0004141EC100B17
:103EB000BDE60000000000000000F03F0000000030
:103EC000075C143326A6913C182D4454FB21F93F7E
:103ED0000000F07F0000E03F000000000000F03F25
:103EE000480D0000560D0000000000000000E03FFB
:103EF0009A0C0000A80C00003333EF3F00000000D4
:103F00000000000000000040182D4454FB21E93F50
:103F100070B59B482DED020B2DED068B079D25F00E
:103F20000044A04218DC9748844202DC0AD106987B
:103F300040B19DED060BBDEC068B02B0BDE87040B4
:103F400000F0C6BA002DCCBF9FED8F0B9FED900BFC
:103F5000BDEC068B02B070BD8F48A04215DD8F48C6
:103F6000A042D8BF4FF0FF3458DD9DED060B51EC59
:103F7000100BFFF703FE042808BF00F0CDFA9DEDFB
:103F8000060BBDEC068B02B070BD9DED060B51EC2F
:103F9000100B00F0FDFBCDE9060181489FED828BFF
:103FA000A0423CDD8248A0421FDD00249FED82AB91
:103FB0009DED060B53EC1A2B51EC100BFCF797FA06
:103FC0009DED060B41EC190B53EC1A2B51EC100B29
:103FD000FCF739F953EC182BFCF72AFB53EC192B9F
:103FE000FCF72CFBCDE9060149E09DED060B012411
:103FF00053EC182B51EC100BFCF779FA9DED060BE6
:1040000041EC190B53EC182B51EC100BFCF710FB87
:1040100053EC192BFCF712FBCDE906012FE06848A1
:10402000A0421FDD02249FED689B9DED060B53EC23
:10403000192B51EC100BFCF706F953EC182BFCF77D
:1040400056FA9DED060B41EC180B53EC192B51EC75
:10405000100BFCF7EDFA53EC182BFCF7EFFACDE957
:1040600006010CE09DED060B032453EC102B9FED95
:10407000580B51EC100BFCF7E1FACDE906019DED70
:10408000060B53EC102B51EC100BFCF7DCF841EC59
:10409000180B53EC182BFCF7D6F841EC190B4E48D3
:1040A0000621B0EE490AF0EE690A784400F094F96E
:1040B00053EC182B51EC100BFCF7C5F841EC180B26
:1040C0004648B0EE490AF0EE690A0521784400F04E
:1040D00083F953EC192B51EC100BFCF7B4F841ECBD
:1040E000100B51EC180B53EC102B002C0EDAFCF7D4
:1040F000FEF99DED061B53EC112BFCF7A4F89DED8A
:10410000061B53EC112BFCF796FA35E0FCF7EFF9A0
:104110009DED061B53EC112BFCF795F841EC100BB1
:104120002F48784400EBC40090ED001B51EC100BBD
:1041300053EC112BFCF77CFA9DED061B53EC112B75
:10414000FCF776FA41EC100B2648784400EBC400EB
:1041500090ED001B51EC100B53EC112BFCF76BFA9C
:1041600041EC100B002DA2BFBDEC068B02B070BD60
:1041700051EC100B81F0004141EC100B01E7000005
:10418000000010440000F07F182D4454FB21F93F3B
:10419000182D4454FB21F9BF0000DC3F0000203EF5
:1041A0000000F33F00000000000000000000F03FAE
:1041B0000000E63F0000000000000000000000409A
:1041C0000080034000000000000000000000F83FF5
:1041D000000000000000F0BFEA090000A009000094
:1041E0002A090000E208000070B56B4E2DED040BAB
:1041F0002DED028B82B0DDF81CC0DDE905235C42A9
:104200002CF000411C4341EAD474049D22F000408C
:10421000B44205D86C422C4340EAD474B4420BD962
:104220009DED061B9DED040B02B0BDEC028B04B0AE
:10423000BDE8704000F056B9ACF14054A4F17F6481
:104240001C430BD0022404EAAC7444EAD274054344
:104250009FED538B9FED542B07D015E09DED040B84
:1042600051EC100B00F07EF942E0002C11BF012C44
:104270009DED040B02B0BDEC028B04BF04B070BD19
:10428000022C38D0032C3BD00B439FED491B9FEDF4
:104290004A0B0AD0B14218D1B04209D121F0804175
:1042A00020F08040079105900FE0002A15DA10E019
:1042B000434B7B44002C08BF93ED000B0DD0012C29
:1042C00010D0022C17D0032C1AD0B0421DD1002AD6
:1042D00003DAB0EE410AF0EE610A02B0BDEC028BE7
:1042E00004B070BD93ED000B51EC100B81F0004158
:1042F00041EC100BF1E7B0EE480AF0EE680AECE78B
:10430000B0EE420AF0EE620AE7E7401A00153C28D8
:10431000C8BF8DED000B19DCBCF1000FBEBF10F162
:104320003C0F9FED290B8DED000B0FDB9DED060B78
:1043300053EC102B9DED040B51EC100BFCF77EF9A8
:1043400000F026FA00F00EF9CDE90001002C08BFBC
:104350009DED000BC1D0012C10D0022C9FED1C0B49
:1043600053EC102B9DED000B51EC100B0DD0FCF716
:104370005FF953EC182BFCF75BF9B9E7019880F073
:10438000004001909DED000BA7E7FCF751F953ECBD
:10439000182BFCF750F9ABE70000F07F000000009D
:1043A000182D4454FB210940182D4454FB2109C009
:1043B000182D4454FB21F9BF182D4454FB21F93F1B
:1043C00012080000000000000000000000000000D3
:1043D000075C143326A6A13C70B504462DED028B74
:1043E0004D1E00EBC500B0EE408AF0EE608A90ED05
:1043F000000B35F0060017D053EC182B51EC100BC6
:10440000FBF721FF41EC100B6D1E04EBC50090ED96
:10441000001B51EC100B53EC112BFCF768F841EC2E
:10442000100B35F00600E7D1022D36D0042D1CD03C
:10443000062D1CBFBDEC028B70BD53EC182B51EC4C
:10444000100BFBF700FF94ED0A1B53EC112BFCF74C
:104450004EF853EC182BFBF7F6FE94ED081B53ECCB
:10446000112BFCF744F841EC100B53EC182B51ECDA
:10447000100BFBF7E8FE94ED061B53EC112BFCF739
:1044800036F853EC182BFBF7DEFE94ED040B53ECDF
:10449000102BFCF72CF841EC100B53EC182B51ECC3
:1044A000100BFBF7D0FE94ED021B53EC112BFCF725
:1044B0001EF853EC182BFBF7C6FE94ED001B53ECD3
:1044C000112BFCF714F8BDEC028B41EC100B70BD06
:1044D00010B553EC102B51EC100BFCF708F841EC25
:1044E000100B10BD10B553EC112B51EC100BFBF75A
:1044F000FEFF41EC100B10BD9FED050B10B553EC0A
:10450000102B51EC100BFCF799F841EC100B10BD7F
:1045100000000000000000009FED050B10B553ECFB
:10452000102B51EC100BFBF78EFE41EC100B10BD65
:10453000000000000000001002E008C8121F08C1BF
:10454000002AFAD170477047002001E001C1121F14
:10455000002AFBD170470000014908607047000045
:104560008000002010B541EC100BFFF7D1FC51EC9E
:10457000100B10BD70B500250024FCF74FF980200A
:10458000FCF78CFA5520FCF789FA5520FCF786FADF
:104590000546FCF739F99620FCF76EF9FCF73EF971
:1045A0008020FCF77BFA5520FCF778FA5520FCF7C1
:1045B00075FA0546FCF728F99620FCF75DF9FCF73B
:1045C0002DF9B6217E20FCF779FAFCF71DF9502071
:1045D000FCF745F9FCF722F98020FCF75FFA55203B
:1045E000FCF75CFA5520FCF759FA0546FCF70CF984
:1045F0009620FCF741F9FCF711F98020FCF74EFA00
:104600005520FCF74BFA5520FCF748FA0546FCF715
:10461000FBF89620FCF730F91E2D01D0FF2070BD6D
:10462000002434E0FCF7FAF804EB44021A4B1A4475
:10463000517804EB4402985CFCF740FAFCF7E4F88C
:104640009620FCF719F9FCF7E9F804EB4401124A4B
:10465000515C41F08000FCF721FA5520FCF71EFA6E
:104660005520FCF71BFA0546FCF7CEF89620FCF720
:1046700003F904EB4400084908444078A84204D0F8
:1046800004EB440008448078C9E7601CC4B2062CDF
:10469000C8DB0020C3E700005000002038B500242C
:1046A00000200090FCF7D0F869460020FCF7E9F9FB
:1046B000FCF7C0F89620FCF7DFF8FCF7C5F8694670
:1046C0000020FCF7DEF9FCF7B5F89620FCF7D4F8EB
:1046D000FCF7BAF8B6211420FCF7F0F9FCF7AAF8B9
:1046E0005020FCF7BCF8FCF7AFF869460020FCF757
:1046F000C8F9FCF79FF89620FCF7BEF8FCF7A4F881
:1047000069460020FCF7BDF9FCF794F89620FCF709
:10471000B3F89DF800000F2801D0FF2038BD002419
:104720002FE0FCF791F804EB4402184B1A4451783F
:1047300004EB4402985CFCF7C1F9FCF77BF8962087
:10474000FCF79AF8FCF780F804EB44010F4A505C40
:104750006946FCF796F9FCF76DF89620FCF78CF8A3
:1047600004EB44000949084440789DF80010884251
:1047700005D004EB4400054908448078CEE7601C6E
:10478000C4B2062CCDDB0020C8E700006200002088
:1047900082B0CDE9000121F0004001909DED000BB9
:1047A00002B051EC100B7047F0EE400AF6EE001A22
:1047B00060EEA11AB0EE611AB0EE600A10EE100AB7
:1047C0000749A1EB600000EE100A21EE002AF7EE87
:1047D000081A42EE401A61EE801AB0EE610A704784
:1047E000DF59375F1CB5FCF763FDFEF76DFDFDF784
:1047F000ABFFFDF775FFFEF761F8FEF783F8FEF7F4
:10480000B7F800BFFCF75DF80028FBD181E0414A12
:1048100041494248FCF764F83F480830011F0B1F2C
:104820003E4A0832CDE90010111F081FFEF7FEFBBB
:10483000394890ED023AF0EE432A90ED013AB0EE9D
:10484000432A90ED003AF0EE431A344890ED023AD4
:10485000B0EE431A90ED013AF0EE430A90ED003AC3
:10486000B0EE430AFEF7AEF82D4890ED000A2D4851
:1048700080ED000A2C4890ED000A2A4880ED010ADC
:104880002A4890ED000A274880ED020A244890ED5E
:10489000000A2748FDF7F2FE224880ED000A224870
:1048A00090ED000A2248FDF7E9FE1E4880ED010A5E
:1048B0001E4890ED000A1E48FDF7E0FE194880ED05
:1048C000020A0C2201461B48FDF78AFE0520FCF770
:1048D00099FB042218491748FDF782FE1748007813
:1048E00001280ED1002016490870144908704FF4B1
:1048F00080511448FCF7BEFC114801781248FBF7C0
:1049000097FC642210490B48FDF75AFE3220FCF751
:1049100079FB7CE714000020900000208400002038
:10492000340000209C000020380000203C000020C3
:10493000000000206C020020180000201D00002054
:104940001C000020001C02400802002000B52DEDD4
:10495000048B83B041EC190BFBF704FF41EC180BFF
:1049600018EE100A18EE901A8DED008B002818BF73
:104970000120084320F00040C0F17F6000F1E040DA
:10498000C00F14D019EE101A19EE900A8DED009B8D
:10499000002918BF0121084320F00040C0F17F60CA
:1049A00000F1E040C00F04BF0120FFF7D5FD51EC3E
:1049B000180B03B0BDEC048B00BD0000000000002C
:1049C00000000102030406070809000000000102BC
:1049D0000304000610160006101600000000000078
:1049E000555555555555C53F7D6FEB0312D6D4BF70
:1049F0005544880E55C1C93F3B8F68B52882A4BF76
:104A000088B20175E0EF493F09F7FD0DE13D023F36
:104A10004B2D8A1C273A03C0C88A599CE52A0040BE
:104A200059018D1B6C06E6BF82922EB1C5B8B33F0B
:104A30004FBB610567ACDD3F182D4454FB21E93FB6
:104A40009BF681D20B73EF3F182D4454FB21F93FA5
:104A5000E2652F227F2B7A3C075C143326A6813C2B
:104A6000BDCBF07A8807703C075C143326A6913CD6
:104A7000C4EB98999999C9BF711623FEC671BCBF42
:104A80006D9A74AFF2B0B3BF9AFDDE522DDEADBFAA
:104A90002F6C6A2C44B4A2BF0D5555555555D53FC2
:104AA000FF8300922449C23F6E204CC5CD45B73FDD
:104AB000513DD0A0660DB13FEB0D76244B7BA93F55
:104AC00011DA22E33AAD903F000000000000000040
:104AD000F04A00080000002084000000384500086B
:104AE000744B000884000020F422000048450008B0
:104AF00000007042000000000000803F0000C8423B
:104B000000806844000000000000807F000000007A
:104B10000024F4000000803F0000000000000000BE
:104B20000000000000000000000000000000000085
:104B30000000803F0000803FE7416B3A58A00B3AED
:104B40007D04017C000240AB034100055308065878
:104B500004070F000810820911000A15800B1600C7
:104B60000C18010D01000000100000000000000002
:044B70000000000041
:040000050800018965
:00000001FF
